:020000040800F2
:10000000F0060020F9140008410400084304000829
:10001000470400084B0400084F04000800000000DB
:100020000000000000000000000000005304000871
:100030005504000800000000570400085904000897
:100040003F080008131500081315000813150008D1
:10005000131500081315000893090008131500086C
:1000600013150008131500081315000813150008D0
:1000700013150008131500081315000813150008C0
:1000800013150008131500081315000813150008B0
:1000900013150008131500081315000813150008A0
:1000A0001315000813150008131500081315000890
:1000B00013150008D50800081315000813150008CB
:1000C0001315000813150008131500081315000870
:1000D000131500086514000813150008131500080F
:1000E00013150008131500081315000800F002F896
:1000F00000F049F80AA090E8000C82448344AAF179
:100100000107DA4501D100F03EF8AFF2090EBAE876
:100110000F0013F0010F18BFFB1A43F0010318473B
:100120007056000090560000103A24BF78C878C17D
:10013000FAD8520724BF30C830C144BF04680C60ED
:10014000704700000023002400250026103A28BF35
:1001500078C1FBD8520728BF30C148BF0B60704739
:10016000662905F0BA82002070471FB505F0A9FA8C
:1001700004F03AFB04000020002105F08FF8E06055
:100180001FBD10B510BD04F049FC1146FFF7EDFF8F
:1001900000F008F804F067FC03B4FFF7F2FF03BCBB
:1001A00001F0FEF88AB04FF0000083468246934982
:1001B00003C9CDE905014FF00000049000F0BBF940
:1001C000482001F08DF801F0E5F84FF4165001F0E9
:1001D000F4F800F03FFA00F075FA00F02BFC00F0A4
:1001E00091FC01F061F84FF4FA7001F090F884A0EE
:1001F00004F08EF800F09DFF03E0002000F056FFB1
:10020000049004980028F8D0012000F04FFF8DF8EA
:100210001400102000F04AFF8DF81500112000F0A6
:1002200045FF8DF81600122000F040FF8DF81700F2
:100230000021012000F05CFF1F21102000F058FF7A
:100240004D21112000F054FF0321122000F050FF37
:10025000102000F02BFF8DF81500112000F026FF74
:100260008DF81600122000F021FF8DF817000020F5
:1002700000F01CFF8DF818009DF815001F280ED106
:100280004FF4FA7001F043F86048006810B94FF07D
:10029000010001E04FF000005C4908600DE04FF400
:1002A000FA7001F034F85A48006810B94FF00100B4
:1002B00001E04FF0000056490860082000F005FCFE
:1002C0000990099805F0A4F9019005F05DF94FF047
:1002D0006632504BCDE9020105F058F8044604F0AF
:1002E000F3FF074600BF384605F04EF904462246A4
:1002F0000B4649A004F00CF800F085FE0646002EDF
:1003000003DAC6F1000000B206460A2096FBF0F0C0
:10031000044605F065F9804600BF4FF00A0096FBE1
:10032000F0F100FB1160044605F05AF9814600BF68
:10033000484605F029F904460D46404605F024F9E3
:1003400002460B46CDE90045CDE9020135A003F098
:10035000DFFF4FF47A7000F0DAFF0121084600F069
:10036000C7FE00F000FF1021344801F046FE4FF0B8
:1003700080008246504600F013FF8346504600F04E
:100380000FFF8346504600F00BFF834635E0DA4509
:1003900025D1092000F099FB0890089805F038F95C
:1003A000019005F0F1F804464FF06632194B04F065
:1003B000EDFFCDE9020104F087FF07900798079051
:1003C0001248006810B94FF0010001E04FF0000042
:1003D0000E4908604FF4FA7000F099FF0DE00C48E8
:1003E000006810B94FF0010001E04FF0000008492B
:1003F00008604FF4967000F08AFFC8E7F4560008D2
:100400000A48656C6C6F2058584C00008881224265
:10041000A001214266664A3F0A0A444F3D2566769E
:10042000200000002054656D703D25662E25666312
:100430002031333A34303A323900000000100140A4
:10044000704700BFFEE700BFFEE700BFFEE700BF4A
:10045000FEE7704770477047704700004FF000029A
:1004600011461046724A126842F48032704B1A608C
:1004700000BF6F4A126802F40032104601F1010217
:10048000114610B9B1F5A06FF3D1694A126812F4A0
:10049000003F03D04FF00102104602E04FF000028F
:1004A0001046012842D1634A126842F01002614BA3
:1004B0001A601A46126822F003021A601A4612687D
:1004C00042F002021A605A4A5268594B5A601A4660
:1004D00052685A601A46526842F480625A601A465C
:1004E000526822F47C125A601A46526842F4E812AA
:1004F0005A601A46126842F080721A6000BF4C4A75
:10050000126812F0007FFAD0494A526822F00302C2
:10051000474B5A601A46526842F002025A6000BFC6
:10052000434A526802F00C02082AF9D1704710B50C
:10053000FFF794FF10BD10B53D48006840F0010082
:100540003B490860084640683B4900EA01003849D9
:10055000486008460068394900EA010034490860EB
:100560000846006820F4802008600846406820F4AF
:10057000FE0048604FF41F008860FFF7D8FF4FF07F
:1005800000602F49086010BD10B54FF000031946F8
:1005900018461A46264B5B6803F00C03194621B136
:1005A000042906D008292FD107E0264B264C2360CA
:1005B0002EE0244B244C23602AE01D4B5B6803F49F
:1005C000701318461A4B5B6803F480331A464FF0D9
:1005D000020303EB904318462AB91C4B00FB03F3BC
:1005E000194C23600FE0124B5B6813F4003F05D0F9
:1005F000164B00FB03F3144C236004E0114B00FB8B
:1006000003F3114C236003E00E4B0F4C236000BF3B
:1006100000BF074B5B68C3F303130D4CE35C194643
:10062000094B1B6823FA01F3074C236010BD00003F
:1006300000100240002002400000FFF8FFFFF6FE1D
:1006400008ED00E000127A000000002000093D00E3
:100650000400002008B50121042002F016F84FF430
:100660008070ADF800004FF010008DF803004FF0DF
:1006700003008DF802006946104801F0E1FB4FF4D9
:1006800080710E4801F0B7FC0121202001F0FDFF30
:100690004FF00400ADF800004FF010008DF803009B
:1006A0004FF003008DF802006946054801F0C8FBD1
:1006B0000421034801F09FFC08BD00000008014030
:1006C0000014014008B50121042001F0DEFF4FF4C1
:1006D0002040ADF800004FF048008DF80300694657
:1006E0002C4801F0ADFB4FF00100ADF800004FF0D9
:1006F00028008DF803006946264801F0A1FB08BDDB
:1007000010B50121244801F0A7FC2448007860B30B
:100710002348006830B12348006818B122480068B7
:10072000012822D10A2000F0F2FD4FF000001B4901
:1007300008701B48006828B901211C4801F08CFC96
:10074000012010BD1748006828B90121174801F0A1
:1007500083FC0220F5E714480068012814D1012128
:10076000124801F079FC0320EBE70D4800680128EE
:100770000AD10C480068012806D10B48006818B956
:100780004FF00100054908700121084801F064FCA0
:100790000020D6E7000801400004300014000020CB
:1007A000340121423C01214200012142000230007B
:1007B00070B505460C4645F2555001F0EDFC284653
:1007C00001F0EDFC204601F0EDFC01F0EEFC01F043
:1007D000F1FC70BD10B501F0E8FC10BD08B54FF09C
:1007E00000008DF800004FF002008DF801004FF07E
:1007F00003008DF80200684600F0A4FE08BD70B545
:1008000006460C4615464FF001014FF4006001F01A
:100810004BFF284603F037FD204603F043FD3046EA
:1008200003F05BFD03F062FDFFF7D8FF03F04BFD23
:1008300070BD10B50446204603F04FFD10BD10B545
:100840007F2003F045FD03F051FD0548006810B915
:100850004FF0010001E04FF000000149086010BDB9
:10086000888122427FB504460D464FF001014FF0CA
:10087000020001F019FF41F28830ADF8080041F69E
:100880001F40ADF804004FF00000ADF80A00ADF8CD
:10089000060001A91A4802F03DFA01224121184838
:1008A00002F0A4FE4FF01D008DF800004FF0000094
:1008B0008DF801004FF003008DF802004FF00100A9
:1008C0008DF80300684600F03DFE01210C4802F05F
:1008D00071FE7FBD10B50121094803F02EFA68B101
:1008E0000121074803F042FA0648006810B94FF0AA
:1008F000010001E04FF000000249086010BD000057
:10090000000400408881224210B50121042000F03B
:100910006AFE0121080701F0C7FE012001F083FCF7
:1009200001F0AAFC10BD10B500214FF4FE7001F0DB
:10093000E3FEFFF7E9FF10BD70B54FF0000005467C
:1009400004463849086023E03748006838B105F1AB
:100950000100C0B205464FF0000004460CE004F16F
:100960000100C0B20446032C06DD4FF001002D4902
:1009700008604FF0000070BD1E2000F0C8FC642D20
:1009800006DB4FF00000274908604FF00100F2E756
:10099000DAE710B54FF0010024490860FFF7CCFFFB
:1009A00008B1FFF7C0FF10BD1FB50121052001F000
:1009B0006CFE4FF00100ADF80C004FF028008DF8F0
:1009C0000F0003A91A4801F03BFA0021084601F084
:1009D0009DFB4FF0010000904FF000008DF80400E7
:1009E0004FF008008DF805004FF001008DF806006B
:1009F000684601F017F94FF006008DF808004FF037
:100A000002008DF809008DF80A004FF001008DF802
:100A10000B0002A800F096FDFFF78EFF08B9FFF764
:100A200073FF1FBDA00121420001214214040140B7
:100A30000008014000B587B001214FF4027001F0B9
:100A400024FE4FF4004001F05EFD4FF00300ADF8CE
:100A500004004FF000008DF8070001A9274801F0BD
:100A6000EFF9274800F0F4FD4FF0000002908DF8F8
:100A70000C008DF80D004FF4602004904FF0000042
:100A800005904FF001008DF8180002A91C4800F0F5
:100A900006FE01211A4800F043FE194800F067FEE7
:100AA00000BF174800F068FE0028FAD1144800F093
:100AB00073FE00BF124800F074FE0028FAD1012135
:100AC0000F4800F07EFE07B000BD10B504464FF0A1
:100AD00007034FF001022146094800F0ABFE012157
:100AE000074800F06EFE00BF0221054801F04CF8F7
:100AF0000028F9D0024800F032FF10BD000C014080
:100B00000024014008B50121102001F0BEFD4FF482
:100B1000C050ADF800004FF010008DF803004FF00A
:100B200003008DF802006946A24801F089F94FF0F0
:100B30000100A1490860A149C1F8AC0108BD10B588
:100B40009C48406820F470409A49486008464068D4
:100B500040F4405048604FF00100994908609749BF
:100B6000C1F8B0014FF0040000F0F0FB4FF00000BE
:100B7000934908604FF0040000F0E8FB4FF00000DC
:100B80008E49C1F8B00110BD10B58A48406820F404
:100B90007040884948600846406840F440504860CA
:100BA0004FF00000844908608449C1F8AC014FF05F
:100BB000040000F0CBFB4FF001007F4908607F4943
:100BC000C1F8AC014FF0040000F0C0FB10BD10B53F
:100BD0004FF0000004467748406820F470407549A3
:100BE00048600846406840F4004048604FF001000B
:100BF0007349086000F0AAFB4FF001006F49C1F88B
:100C0000B00100F0A3FB09E004F10100C0B204460A
:100C1000FA2C03DDFFF7B8FF012010BD694800681A
:100C20000028F1D16449086000BFF6E710B54FF025
:100C30000000614908605F48406820F470405D49E9
:100C400048600846406840F4405048604FF000005B
:100C50005A49C1F8AC014FF0020000F077FB4FF0A9
:100C60000100554908604FF0020000F06FFB4FF0A3
:100C700000005249C1F8B00110BD10B54FF000009E
:100C80004D4908604B48406820F47040494948602D
:100C90000846406840F4405048604FF00100474922
:100CA000C1F8AC014FF0020000F050FB4FF0010022
:100CB000414908604FF0020000F048FB4FF000008F
:100CC0003E49C1F8B00110BD70B5044639484068CE
:100CD00020F47040374948600846406840F440506E
:100CE00048604FF0000034490860054621E04FEAB3
:100CF000D410334908604FEA44604FEA106004465C
:100D00004FF0020000F022FB4FF001002B49C1F828
:100D1000B0014FF0020000F019FB4FF0000026492F
:100D200008604FF0020000F011FB05F10100C0B2B5
:100D30000546082DDBDB70BD70B505464FF00000A1
:100D400004461C48406820F470401A494860084630
:100D5000406840F4004048604FF0000006461FE045
:100D60004FF00000144908604FF0020000F0EEFA66
:100D70004FF001001149C1F8B0014FEA44604FEA59
:100D8000106004460F48006818B104F10100C0B2B9
:100D90000446012000F0DAFA06F10100C0B206466E
:100DA000082EDDDB15B9FFF768FF01E0FFF73EFF16
:100DB000204670BD00100140B001224200002242D6
:100DC000AC0122422C01224210B5B248006820F04A
:100DD0000F00B149C1F800080846D0F8000840F0FB
:100DE0000300AC4908604FF00000AC49086040F2D5
:100DF000EE2000F0ABFA4FF00100A949C1F88001E4
:100E00004FF00F0000F0A2FA10BD10B54FF0000037
:100E10000446A048006820F00F009F49C1F8000870
:100E20000846D0F8000840F00800C1F8000807E0C4
:100E300004F10100C0B204464FF0010000F086FA50
:100E40009848006808B1C82CF2DBC82C01DB0120EF
:100E500010BD4FF00000044607E004F10100C0B2ED
:100E600004464FF0010000F071FA8E48006808B99E
:100E7000F02CF2DBF02C01DB0120E9E70020E7E7B2
:100E800010B58448006820F00F008349C1F80008BD
:100E90000846D0F8000840F003007E4908604FF093
:100EA00000007E4908604FF0020000F04FFA4FF05A
:100EB00001007B49C1F880017748D0F8000820F094
:100EC0000F007549C1F800080846D0F8000840F046
:100ED0000800704908604FF00C0000F037FA7148C4
:100EE000006810B14FF0010401E04FF0000432201F
:100EF00000F02CFA204610BD70B54FF000000646F9
:100F00004FF0010005460CE0FFF7BAFF04464FEA38
:100F1000C41040EA6600C0B2064605F10100C0B246
:100F20000546082DF0DD304670BD70B504465948C1
:100F3000006820F00F005849C1F800080846D0F8B2
:100F4000000840F00300C1F800084FF00100064619
:100F50002CE004F001054FEA640004468DB14FF027
:100F600000004E4908604FF0020000F0EFF94FF02A
:100F700001004B49C1F880014FF03C0000F0E6F958
:100F800010E04FF00000454908604FF03C0000F0D1
:100F9000DDF94FF001004249C1F880014FF0020035
:100FA00000F0D4F906F10100C0B20646082ED0DDEB
:100FB00070BD10B5FFF708FFFFF727FFCC20FFF744
:100FC000B4FF4420FFF7B1FF10BD08B50121042094
:100FD00001F05BFB4FF00100ADF800004FF0100096
:100FE0008DF803004FF003008DF802006946294890
:100FF00000F026FF0121274800F0FDFFFFF7E4FE87
:10100000FFF703FF08BD2DE9F84FFFF7D2FFFFF709
:10101000DBFEFFF7FAFECC20FFF787FFBE20FFF7CD
:1010200084FFFFF769FF8346FFF766FF8046B8F14C
:10103000070F0ADD6FEA0800C0B280466FEA0B00B6
:10104000C0B283464FF0000A01E04FF0010AC146EA
:101050004FEA092000B2814609EB0B0000B281463D
:10106000484604F0BDFA009004F08EFA06460022CD
:101070000D4B04F08BF9044604F058F900B2814698
:10108000BAF1000F02D04846BDE8F88FC9F1000060
:1010900000B2F9E700080140000001408001214250
:1010A00000002142000121420000E43F70B50446E7
:1010B0004FF000000546FFF742FD9020FFF704FEC9
:1010C000FFF785FD2046FFF7FFFDFFF780FDFFF7E7
:1010D00036FD9120FFF7F8FDFFF779FD0020FFF7BF
:1010E0002BFE0546FFF7C9FDFFF74EFD284670BDF4
:1010F00070B505460C46FFF722FD9020FFF7E4FD92
:10110000FFF765FD2846FFF7DFFDFFF760FD20468E
:10111000FFF7DAFDFFF75BFDFFF736FD0A2000F071
:10112000F6F870BD10B50020FFF7C0FF044620465A
:1011300010BD08B50121102001F0A7FA4FF04000C2
:10114000ADF800004FF010008DF803004FF00300E1
:101150008DF802006946114800F072FE40210F48E8
:1011600000F04BFF08BD08B50121102001F08DFAF9
:101170004FF04000ADF800004FF010008DF8030074
:101180004FF003008DF802006946044800F058FE55
:101190004021024800F02FFF08BD00000010014070
:1011A00070B505464FF00000044607E004F1010069
:1011B000C0B20446C82C01DD002070BD02213748B2
:1011C00001F081FC0028F1D02946344801F01EFCD2
:1011D0004FF00000044600BF0121304801F073FCCD
:1011E0000028F9D004F10100C0B20446C82C01DD8A
:1011F0000020E2E7294801F00BFCDEE708B50121F9
:1012000041F2040001F041FA4FF0E000ADF80000B7
:101210004FF018008DF803004FF003008DF8020026
:1012200069461F4800F00CFEE0211D4800F0E3FE77
:101230004FF000001B4908804FF4827048804FF443
:10124000006088804FF00200C8804FF000000881E5
:101250004FF4007048814FF0380088814FF0000053
:10126000C8814FF0070008820C4801F0B3FA012151
:101270000A4801F086FB4FF6FF70FFF791FF08BDAB
:1012800010B50446074884810146044801F0A2FADB
:101290000121024801F075FB10BD00000030014043
:1012A000000801403800002008B50121142001F099
:1012B000ECF94FF01000ADF800008DF803004FF08E
:1012C00003008DF802006946044800F0B9FD1021C2
:1012D000024800F090FEFFF791FF08BD00100140AA
:1012E00010B504466FF0040000F090F94FEAE47185
:1012F00004EB51714FEAE101244A11701046007865
:101300004FF47A7100FB01F02149088010BD0146BD
:101310001F4A128801FB02F24FF0E0235A614FF09E
:1013200000029A614FF001021A6100BF4FF0E02203
:10133000106910F0010F02D010F4803FF6D04FF08A
:1013400000024FF0E0231A619A61704701460F4A8C
:10135000127801FB02F24FF0E0235A614FF00002D5
:101360009A614FF001021A6100BF4FF0E02210694C
:1013700010F0010F02D010F4803FF6D04FF00002C1
:101380004FF0E0231A619A617047000016000020B8
:101390001800002010B54FF4A06000F0CDF810BD8B
:1013A000014600BF704700BF4E4A128812F0400F3E
:1013B000FAD0C2B24C4B1A80704710B586B00446C2
:1013C0004FF0010144F2050001F05FF94FF40070A5
:1013D000ADF814004FF003008DF816004FF0180020
:1013E0008DF8170005A9414800F02AFD4FF48060F0
:1013F000ADF814004FF004008DF8170005A93B4824
:1014000000F01EFD4FF025008DF800004FF00300A6
:101410008DF801008DF802004FF001008DF80300F7
:10142000684600F08FF801944FF00000ADF8080016
:10143000ADF80A00ADF80C00ADF810004FF00C004C
:10144000ADF80E0001A9274802F0D7FC012240F2B6
:101450002551244802F09AFD0121224802F089FD1D
:1014600006B010BD10B540F225511E4802F0A8FE8E
:1014700018B31C4802F00BFEC4B21D48007810F0EF
:10148000800F2ED11A48007810F0400F0DD00A2C92
:1014900004D04FF000001649087022E0144800788C
:1014A00040F08000124908701BE00D2C06D1104856
:1014B000007840F040000E49087012E00C480078B7
:1014C00000F03F000B490C540948007800F101007E
:1014D00007490870084600783F2802DD4FF00000F9
:1014E000087010BD00380140043801400008014078
:1014F0001C0000204A000020094880470948004796
:10150000FEE7FEE7FEE7FEE7FEE7FEE7FEE7FEE7B3
:10151000FEE7FEE704480549054A064B7047000010
:1015200037050008ED000008F0000020F00600205C
:10153000F0020020F00200203E4940EA01013E4A4C
:101540001160704770B54FF00004214623464FF0FC
:101550000F042246C4787CB3374C246804F4E0645A
:10156000C4F5E0644FEA14242146C1F10404234683
:1015700022FA01F42246447804FA03F421468478DE
:1015800004EA020444EA010421464FEA0114214618
:101590002A4C0678A155047804F01F054FF0010489
:1015A00004FA05F405784FEA65154FF0E02606EBDE
:1015B0008505C5F800410DE0FFE7047804F01F053C
:1015C0004FF0010404FA05F41D4D06784FEA661643
:1015D00045F8264070BD1B4A01EA020242EA0002B9
:1015E000194B1A60704741B1184A126842EA00026A
:1015F0004FF0E023C3F8102D07E0144A126822EAE6
:1016000000024FF0E023C3F8102D7047042808D1E2
:101610004FF0E021096941F004014FF0E02211612F
:1016200007E04FF0E021096921F004014FF0E022CA
:10163000116170470000FA050CED00E000E400E0E5
:1016400080E100E080FFFF1F08ED00E010ED00E00A
:1016500010B50446FC48844208D10121401501F030
:101660004BF80021601501F047F817E0F748844275
:1016700008D10121001501F03FF80021201501F0EB
:101680003BF80BE0F248844208D10121C80301F085
:1016900033F800214FF4004001F02EF810BD30B5B2
:1016A00002464FF000042046234654682046E94C89
:1016B00000EA040420460D790C6844EA052444EA53
:1016C00000042046506094682046E34C00EA04047D
:1016D0002046D1E9025444EA05044D7944EA450420
:1016E00044EA000420469060D46A204620F4700446
:1016F00020460C7CA4F10104E4B244EA030423462E
:1017000040EA03542046D06230BD4FF00001016032
:10171000017141718160C1604FF001010174704736
:1017200021B1826842F00102826003E0826822F007
:1017300001028260704721B1826842F48072826047
:1017400003E0826822F480728260704710B54FF027
:1017500000042346CCB2234622B1446844EA030481
:10176000446003E0446824EA0304446010BD8168D7
:1017700041F008018160704701464FF000021046B9
:101780008A6812F0080F03D04FF00102104602E001
:101790004FF0000210467047816841F004018160FB
:1017A000704701464FF0000210468A6812F0040F9D
:1017B00003D04FF00102104602E04FF00002104645
:1017C000704721B1826842F4A002826003E082681F
:1017D00022F4A0028260704701464FF000021046DA
:1017E0008A6812F4800F03D04FF00102104602E025
:1017F0004FF000021046704710B50A464FF0000443
:10180000214623464468214621F460442146A2F142
:101810000104234641EA43342146416010BD21B111
:10182000426842F40062426003E0426822F40062CF
:1018300042607047F0B504460D464FF00006304652
:101840003146092D19DDE6683046A5F10A0606EB9A
:1018500046074FF0070606FA07F6314620EA01066A
:101860003046A5F10A0606EB460603FA06F63146AF
:1018700040EA01063046E06014E02669304605EB98
:1018800045074FF0070606FA07F6314620EA01063B
:10189000304605EB450603FA06F6314640EA0106F6
:1018A00030462061072A19DA666B3046A2F101063C
:1018B00006EB86074FF01F0606FA07F6314620EAC8
:1018C00001063046A2F1010606EB860605FA06F689
:1018D000314640EA01063046606334E00D2A19DAE9
:1018E000266B3046A2F1070606EB86074FF01F066F
:1018F00006FA07F6314620EA01063046A2F107064D
:1019000006EB860605FA06F6314640EA0106304641
:10191000206318E0E66A3046A2F10D0606EB860762
:101920004FF01F0606FA07F6314620EA0106304658
:10193000A2F10D0606EB860605FA06F6314640EAE8
:1019400001063046E062F0BD21B1826842F48012A7
:10195000826003E0826822F4801282607047014650
:10196000C86C80B270473D480068704721B142683A
:1019700042F48062426003E0426822F48062426086
:10198000704721B1426842F48052426003E04268ED
:1019900022F48052426070470A464FF00003194615
:1019A0008368194621F4E043194641EA02031946C7
:1019B0008160704721B1826842F40042826003E096
:1019C000826822F400428260704721B1826842F44A
:1019D0000212826003E0826822F402128260704781
:1019E00001464FF0000210468A6812F4001F03D02F
:1019F0004FF00102104602E04FF00002104670471F
:101A0000F0B5044615464FF0000738463A463E46C4
:101A1000092925DDE7683846A1F10A0707EB470CDD
:101A20004FF0070707FA0CF73A4620EA0207384654
:101A3000A1F10A0707EB470703FA07F73A4640EA1E
:101A400002073846E06020E0002401400028014001
:101A5000003C0140FFFEF0FFFDF7F1FF4C24014088
:101A60002769384601EB410C4FF0070707FA0CF7DE
:101A70003A4620EA0207384601EB410703FA07F726
:101A80003A4640EA020738462061A76B3846C0F361
:101A900001573E4605F1030706F1010CA7EB0C07C1
:101AA00007EB870C4FF01F0707FA0CF73A4620EABE
:101AB0000207384605F1030706F1010CA7EB0C07F6
:101AC00007EB870701FA07F73A4640EA020738466C
:101AD000A063F0BD10B50A464FF00004214623462E
:101AE000846B214621F440142146A2F101042346CF
:101AF00041EA03542146816310BD10B54FF0000444
:101B00002346034603EB010423461A6010BD024638
:101B10004FF000000346134601F128001844034625
:101B2000186880B270470A464FF0000319464368B0
:101B30001946314B01EA0303194641EA02031946EB
:101B4000416070474162826270470A464FF000036D
:101B500019464368194621F01F03194641EA02035A
:101B600019464160704738B12449096841F40001C1
:101B7000234AC2F8081406E02049096821F400014C
:101B80001F4AC2F80814704702464FF00003184677
:101B900013680B4203D04FF00103184602E04FF0E8
:101BA0000003184670476FEA01020260704770B583
:101BB00002464FF0000528462B462C464FEA2125C9
:101BC0002B465568CEB205EA06052C4615681D421F
:101BD00004D01CB14FF00105284602E04FF000058B
:101BE000284670BD4FF000031A464FEA21231A46DB
:101BF0006FEA020303607047FFFD3FFF08240140C6
:101C0000002001404FF00000554908605549C1F8D7
:101C100004045549086001F104010860534854491F
:101C2000086070474FF0000211464D4A1146827914
:101C3000002A4AD04B4AD2F80024036822EA030261
:101C4000484BC3F800241A46D2F80424036822EA59
:101C50000302484B1A6002790A4411460A68036875
:101C600042EA03020A603F4AD2F80824036822EAE3
:101C700003023C4BC3F808241A46D2F80C2403682C
:101C800022EA03023C4B1A604279102A12D1354AEB
:101C9000D2F80824036842EA0302324BC3F808244E
:101CA0001A46D2F80C24036842EA03022D4BC3F80B
:101CB0000C2412E02A4A114642790A4411460A6865
:101CC000036842EA03020A6007E002790A44114607
:101CD0000A68036822EA03020A6070474FF00001B5
:101CE000016001714FF00C0141714FF000018171F1
:101CF00070472249096841EA00011A4AC2F81014E3
:101D0000704701464FF000021046194A12680A4215
:101D100003D04FF00102104602E04FF000021046DF
:101D2000704713490860704701464FF0000318469A
:101D30001A460B4B1B6803EA01031A46094BD3F8FA
:101D400014340B4204D01AB14FF00103184602E0DC
:101D50004FF00003184670470549086070470000BF
:101D6000000401400000014008040140FFFF0F0093
:101D700014040140040401400C040140100401401B
:101D800010B50446F748844208D10121042000F030
:101D9000B3FC0021042000F0AFFC46E0F24884428E
:101DA00008D10121082000F0A7FC0021082000F044
:101DB000A3FC3AE0ED48844208D10121102000F054
:101DC0009BFC0021102000F097FC2EE0E8488442A4
:101DD00008D10121202000F08FFC0021202000F0FC
:101DE0008BFC22E0E348844208D10121402000F02E
:101DF00083FC0021402000F07FFC16E0DE48844296
:101E000008D10121802000F077FC0021802000F023
:101E100073FC0AE0D948844207D10121801500F003
:101E20006BFC0021A01500F067FC10BD10B501216E
:101E3000084600F061FC0021012000F05DFC10BDAF
:101E40002DE9F04102464FF0000C654666466046BB
:101E500063466446674691F803C00CF00F0C654674
:101E600091F803C01CF0100F04D091F802C04CEAA6
:101E7000050C6546B1F800C01CF0FF0F3FD0D2F84A
:101E800000C064464FF0000C604635E04FF0010C96
:101E90000CFA00FC6346B1F800C00CEA030C66467D
:101EA0009E4226D14FEA800C63464FF00F0C0CFA8D
:101EB00003FC674624EA070C644605FA03FC4CEA77
:101EC000040C644691F803C0BCF1280F06D14FF012
:101ED000010C0CFA00FCC2F814C00AE091F803C02F
:101EE000BCF1480F05D14FF0010C0CFA00FCC2F810
:101EF00010C000F1010C60460828C7D31460B1F887
:101F000000C0BCF1FF0F44DDD2F804C064464FF0BE
:101F1000000C60463AE000F1080C4FF0010808FAA6
:101F20000CF84346B1F800C00CEA030C66469E422A
:101F300029D14FEA800C63464FF00F0C0CFA03FCDA
:101F4000674624EA070C644605FA03FC4CEA040CD5
:101F5000644691F803C0BCF1280F07D100F1080CCA
:101F60004FF0010808FA0CF8C2F8148091F803C089
:101F7000BCF1480F07D100F1080C4FF0010808FA36
:101F80000CF8C2F8108000F1010C60460828C2D39A
:101F90005460BDE8F0814FF6FF7101804FF00201FF
:101FA00081704FF00401C170704702464FF000038A
:101FB000184693680B4203D04FF00103184602E025
:101FC0004FF00003184670470146886880B270479A
:101FD00002464FF000031846D3680B4203D04FF07F
:101FE0000103184602E04FF000031846704701460F
:101FF000C86880B2704701617047416170470AB19B
:10200000016100E041617047C16070474FF4803367
:102010001A4642EA01031A4682618161826183693C
:102020001A4683691A46704702464FF00003184665
:10203000534B1B6818464FF6807300EA030318469B
:1020400040EA0213184640EA010318464C4B186058
:1020500070474C49C8617047F0B50A464FF000061A
:10206000334634463146354600F00046B6F1004F5F
:1020700003D1434EF669314602E0414E766831465F
:10208000C0F30346354686B2334600F44016B6F533
:10209000401F09D121F070663146394E766826F02E
:1020A0007066374F7E601CE000F48016B6F5801F26
:1020B0000BD14FF0030606FA05F6344621EA040672
:1020C000314641F0706631460BE04FEA50564FEA18
:1020D000061603FA06F621EA0606314641F0706656
:1020E000314642B14FEA50564FEA061603FA06F659
:1020F00046EA0106314600F00046B6F1004F02D133
:102100001F4EF16101E01E4E7160F0BD30B54FF021
:1021100000031A464FEA81734FEA13744FF00F031E
:1021200003FA04F31A46184B4FEAA10453F824307B
:1021300023EA0203144C4FEAA10544F82530234654
:102140004FEAA10453F824304FEA81744FEA147423
:1021500000FA04F443EA04030B4C4FEAA10544F8E7
:10216000253030BD00080140000C01400010014046
:102170000014014000180140001C014000200140F3
:1021800000000140000020420800014001490860B1
:1021900070470000DC002042114908607047104978
:1021A000486070470E49886070474AF6AA200C497B
:1021B000086070474CF6CC400949086070470146FA
:1021C0004FF000021046064AD2680A4203D04FF090
:1021D0000102104602E04FF0000210467047000076
:1021E0000030004010B50121080700F094FA0021EA
:1021F0004FF0805000F08FFA10BD364908627047EA
:1022000034490861704701464FF000021046324AD7
:102210001268104620F0E002104640EA0102104623
:102220002D4A106070472D490860704710B502466E
:102230004FF000031846284B1B68184620F0030394
:10224000184640EA02031846234B1860244B1B68CB
:1022500043F004034FF0E024C4F8103D012901D1FC
:1022600030BF00E020BF1E4B1B6823F004034FF07B
:10227000E024C4F8103D10BD1748006840F0040089
:10228000154908600846006840F0020008601448DC
:10229000006840F004004FF0E021C1F8100D00BFCD
:1022A00000BF30BF704701464FF0000210460A4A97
:1022B00052680A4203D04FF00102104602E04FF08C
:1022C0000002104670470449096841EA8001024A49
:1022D0001160704700000E4200700040A0000E42E6
:1022E00010ED00E0F848006840F00100F649086091
:1022F00008464068F54900EA0100F349486008468D
:102300000068F34900EA0100EF49086008460068E8
:1023100020F4802008600846406820F4FE004860F1
:102320004FF41F0088607047E749096821F4803145
:10233000E54A11601146096821F480211160B0F569
:10234000803F03D0B0F5802F0ED106E0DE4909684A
:1023500041F48031DC4A116007E0DB49096841F44F
:10236000A021D94A116000E000BF00BF704710B53E
:1023700001464FF000042246234620464FEA6114EE
:102380002246012A03D1D04C2468234608E0022AC1
:1023900003D1CD4C246A234602E0CB4C646A234629
:1023A00001F01F0422464FF0010404FA02F41C421B
:1023B00003D04FF00104204602E04FF00004204615
:1023C00010BD70B54FF0000004460546064600BF3C
:1023D0003120FFF7CCFF064604F101000446B4F5B6
:1023E000A06F01D0002EF3D03120FFF7C0FF18B14D
:1023F0004FF00100054602E04FF000000546284678
:1024000070BD01464FF000021046AF4A12681046F8
:1024100020F0F802104640EAC1021046AA4A1060B5
:102420007047AC490860704702464FF000031846F9
:10243000A54B5B68184620F47C13184642EA01035A
:1024400043EA00031846A04B58607047A14908664C
:10245000704701464FF0000210469B4A52681046F2
:1024600020F00302104640EA01021046964A5060EE
:1024700070479548406800F00C00704701464FF0E7
:1024800000021046904A5268104620F0F0021046B2
:1024900040EA010210468C4A5060704701464FF0F6
:1024A00000021046884A5268104620F4E062104646
:1024B00040EA01021046844A5060704701464FF0DE
:1024C00000021046804A5268104620F460521046BE
:1024D00040EAC10210467C4A5060704731B17A4AE6
:1024E000527A42EA0002784B5A7208E0764A527AEF
:1024F0006FEA0003DBB202EA0302734B5A727047C1
:1025000075490860704701464FF0000210466E4A58
:102510005268104620F44042104640EA010210463C
:10252000694A506070474FF000016C4A1170664A6A
:1025300082F82010012802D004280AD104E04FF0CC
:102540000101664A117005E04FF00501634A117000
:1025500000E000BF00BF70476149086070475A49FA
:10256000096A41EA0001584A116270475D490860F2
:10257000704730B54FF0000529462A462C462B46B9
:10258000514D6D6805F00C05294621B1042905D08F
:1025900008292AD105E0544D056029E0524D056017
:1025A00026E0494D6D6805F470152A46464D6D6864
:1025B00005F480352C464FF0020505EB92452A467E
:1025C00024B94A4D02FB05F505600DE03E4D6D68EE
:1025D00015F4003F04D0454D02FB05F5056003E00E
:1025E000414D02FB05F5056002E03F4D056000BF6F
:1025F00000BF354D6D6805F0F00529464FEA11150D
:1026000029463B4D6D5C2B46056825FA03F5456070
:102610002D4D6D6805F4E06529464FEA11252946E0
:10262000334D6D5C2B46456825FA03F58560264DD4
:102630006D6805F4605529464FEAD12529462C4D91
:102640006D5C2B46456825FA03F5C5601E4D6D6827
:1026500005F4404529464FEA91352946254D6D5CE4
:102660002B46C568B5FBF3F5056130BD31B1164A9F
:10267000526942EA0002144B5A6105E0124A52695B
:1026800022EA0002104B5A61704731B10E4A92693A
:1026900042EA00020C4B9A6105E00B4A926922EA79
:1026A0000002094B9A61704731B1074AD26942EA88
:1026B0000002054BDA6105E0034AD26922EA000212
:1026C000014BDA6170470000001002400000FFF883
:1026D000FFFFF6FE00004242D800424220100240B6
:1026E000800442423C04424200127A0000093D004C
:1026F000240000203400002031B1204AD26842EA90
:1027000000021E4BDA6005E01C4AD26822EA000291
:102710001A4BDA60704731B1184A126942EA000276
:10272000164B1A6105E0154A126922EA0002134BA2
:102730001A6170471249086070471249C8647047AF
:102740000E49C87170470D48406A40F080700B49CF
:102750004862704701464FF000021046074A9268EF
:102760000A4203D04FF00102104602E04FF000028F
:1027700010467047014988727047000000100240FF
:10278000400442420000424210B50446F4488442EC
:1027900008D101218014FFF7AFFF0021A014FFF73B
:1027A000ABFF16E0EF48844208D101210014FFF787
:1027B000B2FF00212014FFF7AEFF0AE0EA4884428E
:1027C00007D10121C013FFF7A6FF0021E013FFF797
:1027D000A2FF10BD10B54FF000031A4603881A4639
:1027E00002F441531A460B884C8843EA04038C8850
:1027F00043EA0403CC8843EA04030C8943EA040354
:102800004C8943EA04038C8943EA0403CC8943EAF4
:10281000040343EA02031A460280838B4FF2FF74DB
:1028200003EA040383830B8A038210BD2DE9F04F72
:1028300085B005460C464FF0000081464FF002007F
:1028400007464FF0000080464FF0010083464FF0EE
:10285000000006468246A88B4FF2400100EA0100C4
:10286000A8834FF002002884A88B8146A068022824
:1028700006D14FF0000080464FF00200074641E0CD
:10288000A08818B94FF00100834602E04FF0020023
:102890008346B448854200D100E000BF6846FFF798
:1028A00068FE00988246E088B0F5007F0CD14FEAC0
:1028B0001A2000EB80004FEA4000A168B0FBF1F065
:1028C00000F1050086B20DE04FEA4B10BAFBF0F0C4
:1028D00000EB80004FEA4000A168B0FBF1F000F18E
:1028E000050086B24FF00A00B6FBF0F0064606F08F
:1028F00001008046A6EB0800C0F34F0007464FEAF0
:1029000008208046022F01DBFF2F05DD4FF002007B
:1029100007464FF000008046E08840EA080040EAA1
:1029200007002884A088A18940EA0100618840EA64
:102930000100218840EA010040F4006040EA0900FB
:102940008146A5F81C9005B0BDE8F08F4FF000015E
:10295000018041808180C180018141818181C1816B
:102960004FF00701018270474FF000010180418064
:102970008180C1804FF0020181604FF000018181B0
:10298000704721B1028842F04002028005E00288CF
:102990004FF6BF7302EA03020280704721B1828BB7
:1029A00042F48062828305E0828B4FF6FF3302EAB5
:1029B00003028283704770B54FF000052C462B460A
:1029C0004FEA21152C464FF0010505FA04F5ADB28A
:1029D0002B4622B1858845EA0305858006E0858877
:1029E0006FEA0306B6B205EA0605858070BD10B52C
:1029F00022B1838843EA0103838006E083886FEA7B
:102A00000104A4B203EA0403838010BD81817047EE
:102A1000014688897047A1F57E42FF3A04D00288BA
:102A200042F48072028005E002884FF6FF6302EAFA
:102A300003020280704721B1828842F00402828042
:102A400005E082884FF6FB7302EA0302828070473A
:102A500002884FF2FF7302EA03020280028842EA10
:102A6000010202807047018841F480510180704763
:102A700021B1028842F40052028005E002884DF63E
:102A8000FF7302EA03020280704702464FF0000320
:102A90001846012902D0138B184601E0938A184684
:102AA00070470146088A7047B1F5804F04D102880B
:102AB00042F48042028005E002884BF6FF7302EA8E
:102AC00003020280704702464FF000031846138944
:102AD0000B4203D04FF00103184602E04FF0000311
:102AE000184670476FEA010202817047F0B502464E
:102AF0004FF00006304634463346354601F00F07A6
:102B00004FF0010606FA07F6B6B234464FEA211630
:102B100033464FF0010606FA03F6B6B233469688FE
:102B200006EA030635461689264204D01DB14FF049
:102B30000106304602E04FF000063046F0BD10B509
:102B40004FF000031A4601F00F044FF0010303FA9F
:102B500004F39BB21A466FEA0203038110BD000022
:102B60000030014000380040003C004010B50446F1
:102B7000FF48844208D10121C014FFF7BDFD0021A8
:102B8000E014FFF7B9FDC4E0B4F1804F08D1012192
:102B90000846FFF7C0FD00210120FFF7BCFDB8E0AB
:102BA000F448844208D101210220FFF7B4FD00213E
:102BB0000220FFF7B0FDACE0EF48844208D10121CC
:102BC0000420FFF7A8FD00210420FFF7A4FDA0E0EA
:102BD000EA48844208D101210820FFF79CFD00212A
:102BE0000820FFF798FD94E0E548844208D10121D0
:102BF0001020FFF790FD00211020FFF78CFD88E0EA
:102C0000E048844208D101212020FFF784FD002103
:102C10002020FFF780FD7CE0DB48844208D10121C1
:102C20004014FFF769FD00216014FFF765FD70E0B7
:102C3000D648844209D10121C804FFF75DFD002177
:102C40004FF40020FFF758FD63E0D148844209D1DA
:102C500001210805FFF750FD00214FF48010FFF718
:102C60004BFD56E0CB48844209D101214805FFF7CE
:102C700043FD00214FF40010FFF73EFD49E0C64838
:102C8000844208D101214020FFF745FD002140206A
:102C9000FFF741FD3DE0C148844208D10121802079
:102CA000FFF739FD00218020FFF735FD31E0BC48FA
:102CB000844208D101218015FFF72DFD0021A015C8
:102CC000FFF729FD25E0B748844209D10121080416
:102CD000FFF712FD00214FF48030FFF70DFD18E0E3
:102CE000B148844209D101214804FFF705FD0021C4
:102CF0004FF40030FFF700FD0BE0AC48844208D1F0
:102D000001218804FFF7F8FC00214FF48020FFF731
:102D1000F3FC10BD4FF000031A4603881A46944B8B
:102D200098420ED0984B98420BD0B0F1804F08D00B
:102D3000904B984205D0904B984202D08F4B9842CE
:102D400008D14FF68F7302EA03031A464B8843EA11
:102D500002031A468A4B98420BD08A4B984208D0FD
:102D60004FF6FF4302EA03031A46CB8843EA020305
:102D70001A4602808B8883850B8803857C4B98429A
:102D80000BD0814B984208D0864B984205D0864B99
:102D9000984202D0854B984201D10B7A03864FF0BE
:102DA00001038382704770B54FF000052C462A4618
:102DB0002B46058C4FF6FE7605EA06050584058C44
:102DC0002A4685882B46058B2C464FF68F7504EADC
:102DD00005052C464FF6FC7504EA05052C460D88C2
:102DE00045EA04052C464FF6FD7502EA05052A461C
:102DF0000D8945EA02052A464D8845EA02052A461C
:102E00005B4DA8420BD0604DA84208D0654DA8424A
:102E100005D0654DA84202D0644DA84223D14FF69B
:102E2000F77502EA05052A464D8945EA02052A4654
:102E30004FF6FB7502EA05052A468D8845EA02052C
:102E40002A464FF6FF6503EA05052B464FF6FF5568
:102E500003EA05052B468D8945EA03052B46CD89F6
:102E600045EA03052B4683800483CD88858602844A
:102E700070BD70B54FF000052C462A462B46058CD8
:102E80004FF6EF7605EA06050584058C2A46858807
:102E90002B46058B2C4648F6FF7504EA05052C46A3
:102EA0004FF6FF4504EA05052C460D884FEA0565F7
:102EB00044EA15452C464FF6DF7502EA05052A4619
:102EC0000D894FEA055542EA15452A464D884FEAD5
:102ED000055542EA15452A46254DA84202D02A4DFD
:102EE000A8422BD14FF67F7502EA05052A464D8987
:102EF0004FEA055542EA15452A464FF6BF7502EAE4
:102F000005052A468D884FEA055542EA15452A46A9
:102F10004FF6FF3503EA05052B464FF2FF7503EA2E
:102F200005052B468D894FEA854543EA15452B4615
:102F3000CD894FEA854543EA15452B4683800483B6
:102F4000CD880587028470BD70B54FF000052C4612
:102F50002A462B46058C4FF6FF6605EA06050584D2
:102F6000058C2A4685882B46858B2C4620E0000060
:102F7000002C01400004004000080040000C00400C
:102F8000001000400014004000340140004C01409B
:102F9000005001400054014000180040001C004057
:102FA0000020004000400140004401400048014032
:102FB0004FF68F7504EA05052C464FF6FC7504EABA
:102FC00005052C460D8845EA04052C464FF6FF55AD
:102FD00002EA05052A460D894FEA056542EA1545CC
:102FE0002A464D884FEA056542EA15452A46FE4DB8
:102FF000A84202D0FD4DA8422BD14FF2FF7502EA44
:1030000005052A464D894FEA056542EA15452A46D7
:103010004FF6FF3502EA05052A468D884FEA056519
:1030200042EA15452A464EF6FF7503EA05052B468A
:103030004DF6FF7503EA05052B468D894FEA0555C8
:1030400043EA15452B46CD894FEA055543EA154518
:103050002B4683808483CD888587028470BD70B5BC
:103060004FF000052A462B462C46058C4EF6FF767F
:1030700005EA06050584058C2B4685882C46858B3C
:103080002A4648F6FF7502EA05052A464FF6FF452F
:1030900002EA05052A460D884FEA056542EA15450C
:1030A0002A464DF6FF7503EA05052B460D894FEAC2
:1030B000057543EA15452B464D884FEA057543EAE9
:1030C00015452B46C84DA84202D0C84DA8420AD18A
:1030D0004BF6FF7504EA05052C468D894FEA8555A8
:1030E00044EA15452C4684808283CD88A0F8405060
:1030F000038470BD828B4FF2FF3302EA03028283A6
:10310000828B4FEA016342EA134282837047F0B533
:103110000C4615464FF000073A4639463E46078CA6
:103120004EF6FF7C07EA0C070784878B3A46078C2C
:1031300039464FEA04774FEA17473E4640F6FF47C5
:1031400002EA07073A464FEA056742EA17473A4656
:103150004FEA037742EA17473A46A34FB8420ED0E8
:10316000A24FB8420BD0B0F1804F08D0A04FB84268
:1031700005D0A04FB84202D09F4FB8420AD14DF6B9
:10318000FF7701EA0707394646F4805747EA010707
:10319000394609E047F6FF5701EA0707394644F484
:1031A000805747EA0107394682830184F0BD828B4C
:1031B0004FF6F37302EA03028283828B42EA010232
:1031C00082837047F0B50C4615464FF000073A462B
:1031D00039463E46078C4FF6FF6C07EA0C0707841A
:1031E000878B3A46078C39464FEA04674FEA174700
:1031F0003E464FF60C7702EA07073A464FEA035776
:1032000045EA174747EA02073A46774FB8420ED0D9
:10321000764FB8420BD0B0F1804F08D0744FB8420F
:1032200005D0744FB84202D0734FB8420AD14FF65E
:10323000FF5701EA0707394646F4807747EA010756
:10324000394609E04FF2FF5701EA0707394644F4CF
:10325000807747EA0107394682830184F0BD028BFB
:103260004FF2FF3302EA03020283028B4FEA01634B
:1032700042EA134202837047F0B50C4615464FF000
:1032800000073A4639463E46078C4FF6EF7C07EA80
:103290000C070784078B3A46078C39464FEA0457D8
:1032A0004FEA17473E4640F6FF4702EA07073A460D
:1032B0004FEA037742EA17473A464FEA056742EA80
:1032C00017473A46484FB8420ED0484FB8420BD045
:1032D000B0F1804F08D0464FB84205D0454FB842B4
:1032E00002D0454FB8420AD14FF6DF7701EA07070F
:1032F000394646F0100747EA0107394609E04FF61C
:103300005F7701EA0707394644F0100747EA0107EB
:10331000394602830184F0BD028B4FF6F37302EA53
:1033200003020283028B42EA010202837047F0B576
:103330000C4615464FF0000632463146068C4FF6D5
:10334000FE7706EA07060684068B3246068C31466F
:103350004FF60C7602EA060632464FEA035645EA75
:10336000164646EA020632461F4EB0420ED01F4EA7
:10337000B0420BD0B0F1804F08D01D4EB04205D006
:103380001C4EB04202D01C4EB0420AD14FF6FD7620
:1033900001EA0606314644F0010646EA01063146D6
:1033A00009E04FF6F57601EA0606314644F00106DB
:1033B00046EA0106314602830184F0BD70B5054638
:1033C0000C46094885420ED0084885420BD0B5F11D
:1033D000804F08D00648854205D00648854202D075
:1033E000054885420AD10AE0002C01400034014022
:1033F0000004004000080040000C004000BF20888E
:1034000070B920890346A088024660880146284694
:10341000FFF78DFFE08801462846FFF77DFF31E08A
:10342000208804280ED120890346A088024660889F
:1034300001462846FFF720FFE08801462846FFF7AF
:103440000EFF1FE0208808280ED120890346A0889F
:103450000246608801462846FFF7B4FEE088014630
:103460002846FFF7A4FE0DE020890346A088024607
:10347000608801462846FFF74AFEE0880146284654
:10348000FFF738FE70BD2DE9F04105460C464FF0C0
:10349000000006464FF001000746608818B94FF05B
:1034A0000200064602E04FF000000646A088012810
:1034B00003D14FF00200074602E04FF0010007463B
:1034C0002088D0B920890346A0880246608801463A
:1034D0002846FFF72CFFE08801462846FFF71CFF2F
:1034E000208903463A4631462846FFF7C5FEE08864
:1034F00001462846FFF7B3FE19E020890346A0885D
:103500000246608801462846FFF7B6FEE08801467D
:103510002846FFF7A4FE208903463A46314628464E
:10352000FFF705FFE08801462846FFF7F5FEBDE8F6
:10353000F0810A884B8842EA03028B8842EA030240
:10354000CB8842EA03020B8942EA03024B8942EA32
:1035500003028B8942EA0302A0F8442070474FF629
:10356000FF7181804FF000010180C18041800172B4
:1035700070474FF00001018041808180C18001814E
:1035800041818181C18170474FF0000101804180FC
:103590004FF0010181804FF00001C180018170472F
:1035A0004FF00001018041808180C1800181418113
:1035B0008181704721B1028842F00102028005E05A
:1035C00002884FF6FE7302EA03020280704731B1AF
:1035D000B0F8442042F40042A0F8442005E0B0F8DE
:1035E0004420C2F30E02A0F84420704710B522B167
:1035F000838943EA0103838106E083896FEA01043A
:10360000A4B203EA0403838110BD8182704741EABA
:103610000203A0F84830704710B522B1838943EA0D
:103620000103838106E083896FEA0104A4B203EAFF
:103630000403838110BD01894FF6F87201EA02018B
:10364000018170470A464FF0000319460389194665
:103650004FF68F7301EA0303194641EA0203194644
:103660000181704730B504460D4629462046FFF7D4
:10367000E9FF208940F00700208130BD2DE9F041AD
:1036800004460D4616461F46602D06D13B460122D4
:1036900031462046FFF7F0FD05E03B46012231466A
:1036A0002046FFF744FE29462046FFF7CBFF20893E
:1036B00040F007002081BDE8F08130B50C464FF0A6
:1036C0000005294605892946CDB229464FEA0365FA
:1036D00042EA154545EA040545EA01052946018106
:1036E00030BD2DE9F04105460E46174698464FF08D
:1036F0000000044643463A4631462846FFF7DDFFC0
:10370000288904464FF6F87104EA0100044644F0A3
:10371000070004464FF68F7104EA0100044644F0A6
:10372000700004462C81BDE8F081F0B504460D46DA
:1037300016461F463B46324629462046FFF7BDFF48
:10374000208940F480402081F0BD0185828270474D
:103750000A464FF000031946038819464FF68F7347
:1037600001EA0303194641EA020319460180704742
:10377000F0B50C4615461E464FF0000739463A464E
:103780003B4607893946078B3A46078C3B464FF63E
:10379000F87701EA0707394641EA040739464FF648
:1037A000FC4702EA07073A4640F2011742EA0707D8
:1037B0003A464FF6DD7703EA07073B464FEA0657DE
:1037C00045EA174747EA03073B4601810283038422
:1037D000F0BD0A464FF000031946038B19464FF619
:1037E0008F7301EA0303194641EA02031946018374
:1037F00070470A464FF000031946038B194648F6F6
:10380000FF7301EA030319464FEA026341EA1343D7
:103810001946018370470A464FF000031946838B0F
:1038200019464FF68F7301EA0303194641EA020372
:103830001946818370470A464FF000031946838B6F
:10384000194648F6FF7301EA030319464FEA02637B
:1038500041EA134319468183704721B1028842F03F
:103860008002028005E002884FF67F7302EA0302BD
:103870000280704721B1828842F00402828005E014
:1038800082884FF6FB7302EA03028280704721B1FF
:10389000828842F00802828005E082884FF6F77342
:1038A00002EA03028280704721B1828842F001025D
:1038B000828005E082884FF6FE7302EA030282806E
:1038C00070470A464FF000031946038B19464FF61E
:1038D000F77301EA0303194641EA0203194601831B
:1038E00070470A464FF000031946038B19464FF202
:1038F000FF7301EA030319464FEA026341EA1343E7
:103900001946018370470A464FF000031946838B1E
:1039100019464FF6F77301EA0303194641EA020319
:103920001946818370470A464FF000031946838B7E
:1039300019464FF2FF7301EA030319464FEA026387
:1039400041EA13431946818370470A464FF000034A
:103950001946038B19464FF6FB7301EA0303194618
:1039600041EA02031946018370470A464FF00003FB
:103970001946038B19464FF6FF3301EA0303194634
:103980004FEA026341EA13431946018370470A462E
:103990004FF000031946838B19464FF6FB7301EA7B
:1039A0000303194641EA02031946818370470A4618
:1039B0004FF000031946838B19464FF6FF3301EA97
:1039C000030319464FEA026341EA13431946818310
:1039D00070470A464FF000031946038B19464FF60D
:1039E0007F7301EA0303194641EA02031946018382
:1039F00070470A464FF000031946038B1946C1F37E
:103A00000E0319464FEA026341EA13431946018344
:103A100070470A464FF000031946838B19464FF64C
:103A20007F7301EA0303194641EA020319468183C1
:103A300070470A464FF000031946838B1946C1F3BD
:103A40000E0319464FEA026341EA13431946818384
:103A500070470A464FF000031946038C19464FF68B
:103A6000FD7301EA0303194641EA02031946018482
:103A700070470A464FF000031946038C19464FF66B
:103A8000F77301EA0303194641EA02031946018468
:103A900070470A464FF000031946038C19464FF64B
:103AA000DF7301EA030319464FEA025341EA134365
:103AB0001946018470470A464FF000031946038CEB
:103AC00019464FF67F7301EA030319464FEA025382
:103AD00041EA13431946018470470A464FF0000338
:103AE0001946038C19464FF6FF5301EA03031946A2
:103AF0004FEA026341EA13431946018470470A46BC
:103B00004FF000031946038C19464FF2FF7301EA88
:103B1000030319464FEA026341EA1343194601843D
:103B200070470A464FF000031946038C19464DF6BC
:103B3000FF7301EA030319464FEA027341EA134394
:103B400019460184704730B54FF0000423464FF00A
:103B5000010404FA01F4A4B22346048C6FEA0305BD
:103B6000ADB204EA05040484048C02FA01F5ADB296
:103B700044EA0504048430BD30B54FF00004234608
:103B80004FF0040404FA01F4A4B22346048C6FEA53
:103B90000305ADB204EA05040484048C02FA01F5BD
:103BA000ADB244EA0504048430BD70B503464FF05D
:103BB000000528462C46184600F1180528464FF007
:103BC000010505FA01F5ADB22C461D8C6FEA04061D
:103BD000B6B205EA06051D8409B108290BD100EB30
:103BE00061052846056825F070050560056845EA09
:103BF000020505600FE0A1F10405ADB200EB65051B
:103C00002846056825F4E045056005684FEA026628
:103C100045EA1645056070BD21B1028842F00202F6
:103C2000028005E002884FF6FD7302EA030202807B
:103C3000704721B1028842F00402028005E0028848
:103C40004FF6FB7302EA03020280704721B18288BB
:103C500042F08002828005E082884FF67F7302EA9C
:103C600003028280704702884FF6F77302EA03026C
:103C70000280028842EA01020280704782884FF681
:103C80008F7302EA03028280828842EA0102828004
:103C9000704702894FF6F87302EA03020281028933
:103CA00042EA01020281704702894FF67F7302EAFD
:103CB00003020281028942EA010202817047818483
:103CC000704781857047818670470187704781877B
:103CD0007047A0F84010704702884FF6FF4302EA91
:103CE00003020280028842EA010202807047014614
:103CF000888E70470146088F70470146888F70474D
:103D00000146B1F8400070470146888C7047014673
:103D1000088D704702464FF000031846138A0B4285
:103D200003D04FF00103184602E04FF0000318469D
:103D300070476FEA01020282704730B502464FF0C9
:103D4000000528462B462C46158A05EA01052B4618
:103D5000958905EA01052C4623B11CB14FF00105F8
:103D6000284602E04FF00005284630BD6FEA010208
:103D70000282704710B50446F748844209D10121F8
:103D80008803FEF7B9FC00214FF48040FEF7B4FC35
:103D900032E0F248844209D101214804FEF7BBFC1D
:103DA00000214FF40030FEF7B6FC25E0EC488442D9
:103DB00009D101218804FEF7AEFC00214FF48020D8
:103DC000FEF7A9FC18E0E748844209D10121C804A4
:103DD000FEF7A1FC00214FF40020FEF79CFC0BE055
:103DE000E148844208D101210805FEF794FC002136
:103DF0004FF48010FEF78FFC10BD2DE9F04786B020
:103E000005460E464FF000000446824600BF81463C
:103E10000746B08900B100BF2F46288A04464CF6F9
:103E2000FF7004EA00000446F08840EA04000446FB
:103E30002C82A88904464EF6F31004EA00000446DA
:103E4000B088318940EA0100718940EA010040EA06
:103E500004000446AC81A88A04464FF6FF4004EAF9
:103E600000000446B08940EA04000446AC8201A880
:103E7000FEF77FFBB848874202D10498824601E0F2
:103E800003988246A88910F4004F09D00AEBCA00B3
:103E900000EB0A1031684FEA4101B0FBF1F808E08D
:103EA0000AEBCA0000EB0A1031684FEA8101B0FB4F
:103EB000F1F84FF06400B8FBF0F04FEA0010044650
:103EC0004FEA14104FF0640101FB10808146A8896D
:103ED00010F4004F0BD04FF0320000EBC900B0FBE4
:103EE000F1F000F0070040EA040004460CE04FF057
:103EF000320000EB09104FF06401B0FBF1F000F06C
:103F00000F0040EA040004462C8106B0BDE8F087AB
:103F10004FF4165101604FF000018180C180018192
:103F20004FF00C0141814FF000018181704710B5C5
:103F300002464FF000031846138A18464FF2FF035B
:103F400000EA030318460B884C8843EA04038C8874
:103F500043EA0403CC8843EA040343EA0003184617
:103F6000108210BD4FF00001018041808180C1802E
:103F7000704721B1828942F40052828105E0828932
:103F80004DF6FF7302EA030282817047F0B50346E3
:103F90004FF000073C463E463D463846A1F51067C7
:103FA0006A3F00D100BF1846C1F342173C4601F0FA
:103FB0001F073E464FF0010707FA06F73D46012C62
:103FC00003D100F10C07384608E0022C03D100F1C0
:103FD0001007384602E000F11407384622B107689E
:103FE00047EA0507076003E0076827EA0507076057
:103FF000F0BD10B522B1838A43EA0103838206E053
:10400000838A6FEA0104A4B203EA0403838210BD29
:10401000028A4FF6F07302EA03020282028A42EA3F
:1040200001020282704782894FF2FF7302EA0302A3
:104030008281828942EA01028281704721B18289AC
:1040400042F00202828105E082894FF6FD7302EAA6
:10405000030282817047028A4FF6DF7302EA03028D
:104060000282028A42EA01020282704721B1028A78
:1040700042F48042028205E0028A4BF6FF7302EAB4
:10408000030202827047C1F3080282807047014632
:104090008888C0F308007047818941F0010181815F
:1040A0007047028BD2B20283028B42EA0122028362
:1040B0007047028B02F47F420283028B42EA0102C4
:1040C0000283704721B1828A42F02002828205E099
:1040D000828A4FF6DF7302EA03028282704721B1BF
:1040E000828A42F01002828205E0828A4FF6EF73E4
:1040F00002EA03028282704721B1828A42F00802FA
:10410000828205E0828A4FF6F77302EA0302828216
:10411000704721B1828942F40042828103E08289A2
:10412000C2F30E028281704721B1828A42F400629A
:10413000828205E0828A4FF2FF7302EA03028282E2
:104140007047828A4FF6FB7302EA03028282828AF8
:1041500042EA010282827047003801400044004078
:1041600000480040004C00400050004021B1828ACD
:1041700042F00202828205E0828A4FF6FD7302EA73
:1041800003028282704702464FF000031846B1F5E1
:10419000007F00D100BF13880B4203D04FF0010312
:1041A000184602E04FF000031846704701F4007211
:1041B000B2F5007F00D100BF6FEA010202807047B4
:1041C00070B502464FF00006344633463546304659
:1041D000A1F510666A3E00D100BFC1F34216354614
:1041E00001F01F0633464FF0010606FA03F6334688
:1041F000012D04D1968906EA030633460AE0022D12
:1042000004D1168A06EA0306334603E0968A06EAD4
:10421000030633464FEA212634464FF0010606FADC
:1042200004F63446168806EA0406344623B11CB167
:104230004FF00106304602E04FF00006304670BDF8
:1042400010B54FF0000422462346A1F510646A3CE5
:1042500000D100BF4FEA212422464FF0010404FAA6
:1042600002F4A4B223466FEA0304048010BD0000E8
:1042700010B50121C802FEF74EFA00214FF400608C
:10428000FEF749FA10BD4FF0000211461A4A1268B3
:1042900022F4C072114641EA00021146174AC2F8E0
:1042A000041C70474FF000021146134A126822F0B6
:1042B0007F02114600F07F0242EA010211460F4AD6
:1042C000C2F8041C70474FF001000D4908607047A8
:1042D00000F07F010B4A1160704740F08001094AED
:1042E0001160704708480068C0B270474FF0000086
:1042F0000549086070470000042C00400020004081
:10430000A4800542002C0040082C004070470000AB
:104310000FB4044910B503AA029800F053FA10BC78
:104320005DF814FB200000202DE9F04104460E4604
:1043300000200AE0E1682046884738B3252806D0E7
:10434000D4E901219047206A401C2062F2E7E1682D
:10435000204600278847050018D0A5F141001928FC
:1043600002D820354FF400673246294620462760A0
:10437000FBF7F6FE40B1012804D0F61D26F0070633
:104380000836D7E7361DD5E72846D9E7206ABDE8C5
:10439000F081704770477047704770472DE9FF4FB5
:1043A0000C461E464FF0FF3789B0D2E90001DDF818
:1043B000588006908946C1F30A5505B93D4600214B
:1043C00008464FF00000B9F1000F00F4400005DA94
:1043D00000EB80004FF4400101EA5000800D0128FD
:1043E000824600DDBA46069850EA49002CD044F6D1
:1043F0001050A5F2FF354543CAF1000008902F1474
:10440000B8F1000F39D07542089A291E00DC5246D7
:1044100000DA694203A800F087FA0699484600F0DE
:104420006DFB8DE80700A0F500501F380090039841
:10443000002D25DD42F21F015246084403A90390D6
:10444000684600F0CCFD24E0B8F1010F4FF0000009
:1044500001D1F24307E0302101E02154401CB04279
:10446000FBDB30460022002121540999C1F8088065
:10447000C1E900200DB0BDE8F08FBD1B6D1CC3E786
:10448000A0F5005052461F3803A90390684600F07B
:10449000BAFD8DE807000004000C03D04FF0FF3098
:1044A000410800E01046B8F1000F03D0002200924E
:1044B00015461FE0751E06D400F09AF902F130028D
:1044C00062556D1EF8D5B3460122084302D0002282
:1044D0007F1C04E02078302801D100227F1E002AB2
:1044E00007978DD01DE0112D07DA00F081F93032E9
:1044F00062556D1C50EA0102F5D108430FD100212D
:10450000681E05E0235C625C6354491C2254401E13
:104510008142F7DBAB46A81B401E079001E00098E4
:1045200048B1002004F80B000998079AC0F80880E9
:10453000C0E9002B9EE711260020804660E72DE9A8
:10454000F04F88460446D21D22F0070191B0D1E910
:104550000001CDE90C0100F08CFE02460D98C10F60
:104560004FF02D0007D123682B205FEA837C02D413
:10457000202000EAC300032A834601D0072A05DB76
:1045800003464146204600F091F918E12068800674
:1045900001D5E06900E0062011238146B8F1650FDE
:1045A00006D0B8F1660F16D0B8F1670F6FD130E0C2
:1045B0000020B9F1110F0090484600DA431C0CAA04
:1045C00001A909A8FFF7EAFE0026099F012009F1C9
:1045D000010582465BE001204B4600904FF000470A
:1045E0000CAA01A909A8FFF7D9FEDDE90A500026A7
:1045F00020B9099909F1010001EB0005B9EB0500AB
:1046000003D4C0F1FF3609F10105A5EB090082468C
:104610003DE0B9F1010F01DA012081460020B9F136
:10462000110F0090484600DC03460CAA01A909A816
:10463000FFF7B4FE20684D46002600070BD40A9809
:10464000A84200DA054601A8012D04DD411911F840
:10465000011C302909D00999494502DA11F1040FEA
:1046600005DA0F460120824611E06D1EECE70029B5
:1046700002DC6D1A0E4403E0481CA84200DD05462A
:10468000A1EB060000F1010082464FF000472068D0
:10469000000704D4AA4502DB4FF0FF308246002118
:1046A0000DF13F00B7F1004F80468DF83F1024D048
:1046B00002202B23002F01DA7F422D230A22011E24
:1046C000A0F1010000DC67B197FBF2F102FB117C65
:1046D0000F46A8F1010188460CF1300C81F800C0AA
:1046E000EDE7A8F101004FF04501037022681205C3
:1046F00000D46521401E804601700EA9A1EB080779
:104700005FEA0B0007F1070700D0012000EB05016D
:1047100001EBEA70A1693844A1EB0000A0F10100AF
:10472000A0612068C00602D42046AFF300805FEA93
:104730000B0006D0D4E901219047206A00F1010066
:1047400020622068C00623D52046AFF300801FE01A
:10475000002E05DB0A98B04202DD01A8805D00E072
:104760003020D4E901219047206A401C2062761C49
:10477000AAF101005FEA000A0AD100F035F8C0682A
:104780000168405CD4E901219047206A401C206206
:10479000281EA5F10105DBDC0AE098F8000008F10D
:1047A00001018846D4E901219047206A401C20621B
:1047B000381EA7F10107F0DC2046AFF3008002208D
:1047C00011B058E6074B70B50C467B4400F05BF81F
:1047D0000546204600F01AF910B14FF0FF3070BDC9
:1047E000284670BDD9CBFFFF00487047AC000020C1
:1047F00030B5B0F10A024FEA900E71F100034EEAB3
:10480000817EB0EB0E0061EB91014FEA101E4EEA83
:10481000017E10EB0E0041EB11114FEA102E4EEA13
:10482000016E10EB0E0041EB11214FEA104E4EEAE3
:10483000014E10EB0E0041EB1141401841F1000117
:104840004FEAD00040EA41704FEAD10110EB8005F9
:104850004FEA810444EA907444EB01046D1944EB7F
:104860000404521BA3414FF0000348BF0A3200D595
:1048700030BD401C41F1000130BD000001694A1CFF
:1048800002610878704700B58FB0CDE90131002191
:10489000059105497944CDE9031011466846FFF7B3
:1048A00043FD0FB000BD0000E5FFFFFF2DE9F04123
:1048B00004461F4603260168072A01F4006003DB53
:1048C00015A520B915A502E015A500B915A521F07B
:1048D00010002060A069C01EA0610FB1401EA06141
:1048E0002046AFF300804FB1D4E90121384690470C
:1048F000206A401C2062C01C206206E0206AFAE7A1
:10490000D4E9012115F8010B9047761EF8D2204614
:10491000AFF30080BDE8F0814E414E006E616E0045
:10492000494E4600696E66002DE9F04781461646FD
:104930008AB035487844D0E9002380680092CDE9F8
:104940000130314878440C38D0E9022300690392E1
:104950004FF03702CDE9043041F69B30014491FB22
:10496000F2F0A0F1800502FB10141B3C02D564425A
:10497000012000E00020DFF890A080460027FA44E4
:10498000AAF1C60A0DE0E00709D03246684607EBF7
:1049900047010AEB810100F036FB8DE80700641047
:1049A0007F1C002CEFD1184F7F44B43F17E0E8077D
:1049B00013D007EB04100DF1180A90E80E00AAE8D6
:1049C0000E00C068F04201D198190890324606A93D
:1049D00003A800F018FB03AB07C36D10641C002D87
:1049E000E5D132466946B8F1000F03A802D000F0C5
:1049F000F6FA01E000F007FBC9E90001C9F8082058
:104A00000AB0BDE8F0870000400E0000C06800F06A
:104A100080007047004870478C0000207546FFF703
:104A2000F9FFAE4605006946534620F0070085466B
:104A300018B020B5FCF76EFDBDE820404FF0000631
:104A40004FF000074FF000084FF0000B21F0070176
:104A5000AC46ACE8C009ACE8C009ACE8C009ACE8B9
:104A6000C0098D4670470446AFF300802046FBF72F
:104A700093FB00004FF0013C50F8042B51F8043B2D
:104A80009A4221D1A2EB0C03934313EACC1317D122
:104A900050F8042B51F8043B9A4215D1A2EB0C03B9
:104AA000934313EACC130BD150F8042B51F8043B79
:104AB0009A4209D1A2EB0C03934313EACC13DBD047
:104AC0004FF00000704700BFD01A01BAB1FA81F16F
:104AD00001F0180122FA01F0CB40C1F12001DBB254
:104AE000C0B2C01A2CFA01F3D11A914311EAC311D2
:104AF000E6D1704700487047900000205FEA400C04
:104B000008BF91F0000F4FEA8C234FEAC12243EA1D
:104B100051514FEA1C5018BF00F5F0404FEA3000E9
:104B200018BF41F000415FEA6C5C00F02980BCF1E5
:104B3000FF3F08BF40F080407047130C06BF1204CF
:104B40004FF0100C4FF0000C130E04BF12020CF1CA
:104B5000080C130F04BF12010CF1040C930F04BFD7
:104B600092000CF1020CD30F04BF52000CF1010CA7
:104B700011464FF00002A0F11F00A0EB0C0070479F
:104B800011F0004F08BF704731F000413FF4D5AF3E
:104B90000B0C06BF09044FF0100C4FF0000C0B0E6D
:104BA00004BF09020CF1080C0B0F04BF09010CF142
:104BB000040C8B0F04BF89000CF1020CCB0F04BF57
:104BC00049000CF1010CCCF12003A0EB0C0022FAFF
:104BD00003F302FA0CF241EA030100F1010070470D
:104BE00020F07F4C80EA030023F07F47ACEB070303
:104BF00003F57C5300F0004003F1FF032DE98049E9
:104C00004FEA154B09B44FEA144325EA0B4E24EA48
:104C100003480FF2042606EB132749083E785FEAA3
:104C2000320203FB0667C7F5000707FB06F64FEAEB
:104C300054374FEAD64606F1020607FB066CCCF164
:104C4000005C4FEA1C472CEA074C07FB06F40CFB00
:104C500006F504EB15464FEA961634BF00204FF0D8
:104C600000404FEAD13706FB07FC4FEA1C4C0CFB17
:104C70000BF7D21B03FB0CF761EB07010CFB0EF7E4
:104C8000B0EB074072EB17420CFB08F734BFA2EB06
:104C90000742B2EB074261EB17414FEA0C444FEA7F
:104CA000910706FB07FC4FEA1C4C0CFB0BF7B0EB23
:104CB000C74072EB573203FB0CF734BFA2EBC7427D
:104CC000B2EBC74261EB57310CFB0EF7B0EBC700FC
:104CD00072EB57720CFB08F734BFA2EBC702B2EBC2
:104CE000C70261EB5771039F4FEA816141EA92115C
:104CF00004EBCC044FEAD1374FEA826206FB07FC93
:104D000042EA90124FEA80604FEA1C4C0CFB0BF712
:104D1000D21B03FB0CF761EB07010CFB0EF7B0EBAA
:104D2000074072EB17420CFB08F734BFA2EB0742B7
:104D3000B2EB074261EB17414FEA8C554FEA9107FE
:104D400004EB9C2406FB07FC4FEA1C4C0CFB0BF706
:104D5000B0EBC74072EB573203FB0CF734BFA2EB4A
:104D6000C742B2EBC74261EB57310CFB0EF7B0EB19
:104D7000C70072EB57720CFB08F734BFA2EBC702F7
:104D8000B2EBC70261EB577115EB4C254FEA81611D
:104D900041EA92114FEA82624FEAD13742EA901219
:104DA00006FB07FC44F100044FEA80604FEA1C4C0C
:104DB0000CFB0BF7D21B03FB0CF761EB07010CFBA1
:104DC0000EF7B0EB074072EB17420CFB08F734BF4D
:104DD000A2EB0742B2EB074261EB174115EB1C1542
:104DE0004FEA813141EA92414FEA823242EA9042EF
:104DF0004FEA80304FEA0C7644F1000448EA03435E
:104E00004EEA0B484FF0000EB2EB080C71EB0307B3
:104E100024BF624639464EEB0E0E4FF0000B0018D1
:104E2000524149414BEB0B0BB2EB080C71EB030702
:104E30007BF1000B24BF624639464EEB0E0E4FF05D
:104E4000000B0018524149414BEB0B0BB2EB080C25
:104E500071EB03077BF1000B24BF624639464EEB32
:104E60000E0E51EA020718BF46F0010616EB0E7649
:104E700055F1000254F1000103D5BDE88901BDE8F8
:104E80000088BDE88901BDE80048B619524141EBF0
:104E90000101A3F10103704780807F7E7D7C7B7AD6
:104EA0007978777676757473727171706F6E6E6DD6
:104EB0006C6C6B6A6A69686867666665646463637C
:104EC00062616160605F5F5E5E5D5D5C5C5B5B5A02
:104ED0005A5959585857575656555555545453536F
:104EE00052525251515050504F4F4F4E4E4D4D4DCA
:104EF0004C4C4C4B4B4B4A4A4A4949494848484715
:104F00004747474646464545454444444443434352
:104F10004342424242414141002B26D4770021D0F6
:104F20001CB54FEA370703B44FF010004FF01001E3
:104F30004FF000000FBCBDE810400BF1010BBBF1BE
:104F4000010F08BF5FEA170722BF12F1010211F13A
:104F500001014FF0004143F1000300F0004043EA3B
:104F600000007047F9D35708DAE746EA064613F11E
:104F7000400F4FEA16461FDD13F1200FDFBF164327
:104F80000A46002120335B42C8D0C3F1200746EA1D
:104F9000064602FA07F74FEA164646EA0706C3F145
:104FA000200722FA03F201FA07F721FA03F14FF082
:104FB000000342EA0702B1E746EA020646EA06466D
:104FC0004FEA164646EA0106BCBF46EA0646360CDC
:104FD0004FF000034FF000024FF000019EE72DE973
:104FE000C048934630B491E8380007C831EA400C15
:104FF00048BF34EA430C03D5FFF7F2FDFFF78CFFFF
:10500000F0BCBDE800882DE9C048934630B491E873
:10501000380007C810F0804F08BF13F0804F03D14D
:1050200000F005F8FFF778FFF0BCBDE8008820F03D
:105030007F4780EA030023F07F4C07EB0C03A3F5C6
:105040007C5300F00040A3F1FE0392F0000F00F04B
:10505000B38095F0000F00F077802DE901494FEA09
:1050600011404FEA144621EA004800FB06FC24EAFE
:10507000064708FB06F607FB08F800FB07F718EBE6
:1050800006484CEB164C4FEA124B18EB07484FEA18
:1050900015464CEB174022EA0B4E0BFB06FC25EAAB
:1050A00006470EFB06F607FB0EFE0BFB07F71EEB93
:1050B000064E4CEB164C4FF000061EEB074E4CEB29
:1050C000174B18EB0B0840F1000018EB0E0B58EBD8
:1050D000000840F100008F1A4FF000013CBFC943A7
:1050E000661B14BFB5EB040C00213CBFC943F61B83
:1050F0004FEA17444EEA8E0E27EA04454FEA1C4752
:1051000004FB07622CEA074C05FB07F70CFB05F6CE
:1051100004FB0CFC16EB074642EB174216EB0C4661
:1051200042EB1C421BEB060658EB0202414146EAE9
:105130009E0601D5BDE80189B619524141EB010136
:10514000A3F10103BDE801894FEA14454FEA114775
:1051500024EA054621EA074C05FB07F406FB07F79E
:105160000CFB06F105FB0CFC11EB074144EB17446B
:105170004FEA124711EB0C4144EB1C4422EA074C66
:1051800005FB07F206FB07F70CFB06F605FB0CFC1C
:1051900016EB074642EB174216EB0C4642EB1C455A
:1051A0006A1854F1000148BF7047B619524141EBEB
:1051B0000101A3F10103704795F0000F37D04FEACA
:1051C00011424FEA144721EA024624EA074C02FB47
:1051D00007F106FB07F70CFB06F402FB0CFC14EBD3
:1051E000074441EB17414FEA154714EB0C4441EBE0
:1051F0001C4125EA074C02FB07F506FB07F70CFBF1
:1052000006F602FB0CFC16EB074645EB174516EBC2
:105210000C4645EB1C42121951F1000148BF704782
:10522000B619524141EB0101A3F1010370474FEA66
:1052300014454FEA114724EA054621EA074C05FBCD
:1052400007F106FB07F70CFB06F24FF0000605FB23
:105250000CFC12EB074241EB174112EB0C4251EBF5
:105260001C4148BF7047921841EB0101A3F10103B3
:105270007047490050EAC12018BF04204A0D18BFEA
:1052800040F0010040F2FF72B2EB515F08BF40F006
:105290000200012808BF05207047000010B5002952
:1052A0000AD00878002807D005487844FFF7E2FBC9
:1052B000002801D0002010BD0248784410BD000035
:1052C00006050000FE04000021F00042A2F1605239
:1052D000B2F5801F01F0004328BFD2F17F6C0BD9DB
:1052E0005FEA001C43EAC20242EB507018BF7047ED
:1052F00028BF20F001007047B2F5801FBCBF1846E0
:1053000070474FEA410C1CF5001F02D2084600F01E
:10531000DFB970B500F0E4F800000089FFF7F6BFD0
:105320004FF00040A0F58000704700004FEA4103B5
:105330004FEA5353A3F58063D3F11E03C8BFD3F1E3
:10534000210C0CDD4FF0004242EAC12242EA5052E9
:1053500032FA03FC8CEAE17CACEBE1707047102B75
:10536000C4BF0020704703F5787CBCF1FF3F04D038
:105370006FF0004282EA2100704770B500F0B0F88B
:105380004992248000207047F2E70000DFF848C10E
:1053900070B51CEA111E1EBF1CEA13159EEA0C0F05
:1053A00095EA0C0F00F06F8081EA030423EA4C13A6
:1053B0004EEAD47E21EA4C1141F4801143F480136B
:1053C000AE44A1FB024CA0FB0365AEF17F7E361913
:1053D00055EB0C05A1FB034C4CF10003A0FB021C98
:1053E00016EB0C06654153F10003094218BF46F065
:1053F000010613F4007F0BD14FEA03314FEA053069
:10540000340341EA155140EA16506FF003020AE0F6
:105410004FEAC3214FEAC520F40241EA555140EA60
:1054200056506FF0020202EB2E4201EB025585EA64
:10543000CE710AD05FEA440C18BF24F0004450F14A
:10544000000041F1000120EAD47040F2FE7C624588
:1054500000D270BDA84214BF4FF080444FF04044CA
:10546000002E08BF0024BEF1806FA8BFA1F1C0418B
:10547000BDE8704080F282804FF0000001F1C04131
:1054800001F0004170479EEA0C0F0CEA131518BF9B
:1054900095EA0C0F06D04FF0000081EA030E0EF0E3
:1054A000004170BD00F01CF88900013E00F007B813
:1054B00000F009B84FEA430C5FEA5C5C08D081EA6F
:1054C000030100F05BB84FEA410C5FEA5C5CF6D187
:1054D0004FF00000014970470000FF070000F87F0F
:1054E0000EF1020E2EF0030E5EF8046B364205D468
:1054F000012A43EB030515F5001F12D8012841EBE3
:10550000010C1CF5001F0CD80ED14FEAD17C15F50B
:10551000001F0CEB4C0C0CF1020C08BF4CEBD37CC5
:1055200004E04FF0080C01E04FEAD37C0CEB4C0593
:1055300026FA05F606F00706B6F1040C06D20EEBC5
:10554000860CBDE870404CF0010C6047DFE80CF0C1
:10555000090B02024FF000414FF00000A1F50021BD
:1055600070BD19461046012851EB010418BFD4F54F
:10557000001484BF002001F0004170BD0808A0F5B0
:1055800000114FEA3101704743004FEAD30C4FEA54
:105590003C0C43401FBF40070CF1605113F0FE4F1D
:1055A00070471CF0006F03D100200CF000417047E1
:1055B0000CF0004343EA507010B540EACC0000F014
:1055C0003AF800BF000000924FEA0001FFF7D6BF93
:1055D0004FF000414FF00000A1F50021704700009E
:1055E00010F0004148BF4042B0FA80F310FA03F2D5
:1055F000C3F19D030BD051EAC35101EB12205306B6
:1056000038BF704700F1010008BF20F0010070476B
:10561000B0FA80F310FA03F2C3F19D030AD0D90562
:1056200001EB1220530638BF704700F1010008BF9C
:1056300020F0010070470EF1020E2EF0030E5EF80E
:10564000044B244204D44FEA4102B2F17F4F11D8F7
:105650004FEA4003B3F17F4F0CD80ED14FEAD07C14
:10566000B2F17F4F0CEB4C0C0CF1020C08BF4CEB71
:10567000D17C04E04FF0080C01E04FEAD17C0CEB48
:105680004C0324FA03F404F00704B4F1040C06D22A
:105690000EEB840CBDE810404CF0010C6047DFE8D5
:1056A0000CF0070802024FF00040A0F5800010BD8A
:1056B0000846420018BFD2F1807288BF00F0004057
:1056C00010BD10B5FFF716FA4FF00001016010BDD4
:1056D000FF2141EAD050C0057047FEF730BF0000FF
:1056E0004D696E6953544D33322049494320544526
:1056F00053540000FF0000000000000002400000C2
:10570000000000A00000000005400000000000C8EC
:10571000000000000C4000000000409C0000000061
:10572000194000000020BCBE000000003440000012
:10573000BFC91B8E00000004B5400000504BCFD005
:105740006607E2CF010000006C4100003E8251AAD2
:10575000DFEEA73401000000D9420000DCB5A0E272
:105760003A301F97FFFFFFFFB4450000FD25A0C89A
:10577000E9A3C14FFFFFFFFFFF3F000000000080D3
:1057800000000000FF3F000000000080000000005B
:10579000CC57000800000020380000002801000855
:1057A0000458000838000020B80600004401000832
:1057B0001C00000043000000F8FFFFFF0C00000089
:1057C0000E0000000F0000002E00000000A24A049E
:1057D00000000000000000000102030406070809A1
:1057E00001000000000000000000000000000000B8
:1057F0000000000001020304010203040607080977
:045800000204060890
:04000005080000ED02
:00000001FF
